{
  "contractName": "Donation",
  "abi": [
    {
      "constant": true,
      "inputs": [],
      "name": "name",
      "outputs": [
        {
          "name": "",
          "type": "string"
        }
      ],
      "payable": false,
      "stateMutability": "view",
      "type": "function",
      "signature": "0x06fdde03"
    },
    {
      "constant": true,
      "inputs": [],
      "name": "totalAmount",
      "outputs": [
        {
          "name": "",
          "type": "uint256"
        }
      ],
      "payable": false,
      "stateMutability": "view",
      "type": "function",
      "signature": "0x1a39d8ef"
    },
    {
      "constant": true,
      "inputs": [],
      "name": "owner",
      "outputs": [
        {
          "name": "",
          "type": "address"
        }
      ],
      "payable": false,
      "stateMutability": "view",
      "type": "function",
      "signature": "0x8da5cb5b"
    },
    {
      "constant": true,
      "inputs": [
        {
          "name": "",
          "type": "address"
        }
      ],
      "name": "donors",
      "outputs": [
        {
          "name": "",
          "type": "uint256"
        }
      ],
      "payable": false,
      "stateMutability": "view",
      "type": "function",
      "signature": "0xca0cdea8"
    },
    {
      "constant": true,
      "inputs": [],
      "name": "currentAmount",
      "outputs": [
        {
          "name": "",
          "type": "uint256"
        }
      ],
      "payable": false,
      "stateMutability": "view",
      "type": "function",
      "signature": "0xf441b1c8"
    },
    {
      "inputs": [],
      "payable": false,
      "stateMutability": "nonpayable",
      "type": "constructor",
      "signature": "constructor"
    },
    {
      "anonymous": false,
      "inputs": [
        {
          "indexed": false,
          "name": "_donor",
          "type": "address"
        },
        {
          "indexed": false,
          "name": "_amount",
          "type": "uint256"
        }
      ],
      "name": "Donated",
      "type": "event",
      "signature": "0x2a01595cddf097c90216094025db714da3f4e5bd8877b56ba86a24ecead8e543"
    },
    {
      "anonymous": false,
      "inputs": [
        {
          "indexed": false,
          "name": "_amount",
          "type": "uint256"
        }
      ],
      "name": "OrganizerWithdrawn",
      "type": "event",
      "signature": "0xabea6ee1abd3feb8eba12257bfc95b35840b18bedf05a71128df905f3bce0e71"
    },
    {
      "constant": false,
      "inputs": [],
      "name": "donate",
      "outputs": [],
      "payable": true,
      "stateMutability": "payable",
      "type": "function",
      "signature": "0xed88c68e"
    },
    {
      "constant": false,
      "inputs": [
        {
          "name": "_to",
          "type": "address"
        }
      ],
      "name": "organizerWithdraw",
      "outputs": [],
      "payable": false,
      "stateMutability": "nonpayable",
      "type": "function",
      "signature": "0x9a247e2d"
    },
    {
      "constant": true,
      "inputs": [],
      "name": "getCurrentAmount",
      "outputs": [
        {
          "name": "",
          "type": "uint256"
        }
      ],
      "payable": false,
      "stateMutability": "view",
      "type": "function",
      "signature": "0x38ba3a17"
    },
    {
      "constant": true,
      "inputs": [],
      "name": "getTotalAmount",
      "outputs": [
        {
          "name": "",
          "type": "uint256"
        }
      ],
      "payable": false,
      "stateMutability": "view",
      "type": "function",
      "signature": "0x65ac4341"
    },
    {
      "constant": true,
      "inputs": [],
      "name": "getName",
      "outputs": [
        {
          "name": "",
          "type": "string"
        }
      ],
      "payable": false,
      "stateMutability": "view",
      "type": "function",
      "signature": "0x17d7de7c"
    },
    {
      "constant": true,
      "inputs": [],
      "name": "getOrganizer",
      "outputs": [
        {
          "name": "",
          "type": "address"
        }
      ],
      "payable": false,
      "stateMutability": "view",
      "type": "function",
      "signature": "0xc2def3b9"
    }
  ],
  "bytecode": "0x608060405234801561001057600080fd5b50336000806101000a81548173ffffffffffffffffffffffffffffffffffffffff021916908373ffffffffffffffffffffffffffffffffffffffff1602179055506040805190810160405280601081526020017f4368617269747920446f6e6174696f6e000000000000000000000000000000008152506001908051906020019061009c9291906100de565b503073ffffffffffffffffffffffffffffffffffffffff16316003819055503073ffffffffffffffffffffffffffffffffffffffff1631600481905550610183565b828054600181600116156101000203166002900490600052602060002090601f016020900481019282601f1061011f57805160ff191683800117855561014d565b8280016001018555821561014d579182015b8281111561014c578251825591602001919060010190610131565b5b50905061015a919061015e565b5090565b61018091905b8082111561017c576000816000905550600101610164565b5090565b90565b610897806101926000396000f3fe6080604052600436106100af576000357c0100000000000000000000000000000000000000000000000000000000900463ffffffff16806306fdde03146100b457806317d7de7c146101445780631a39d8ef146101d457806338ba3a17146101ff57806365ac43411461022a5780638da5cb5b146102555780639a247e2d146102ac578063c2def3b9146102fd578063ca0cdea814610354578063ed88c68e146103b9578063f441b1c8146103c3575b600080fd5b3480156100c057600080fd5b506100c96103ee565b6040518080602001828103825283818151815260200191508051906020019080838360005b838110156101095780820151818401526020810190506100ee565b50505050905090810190601f1680156101365780820380516001836020036101000a031916815260200191505b509250505060405180910390f35b34801561015057600080fd5b5061015961048c565b6040518080602001828103825283818151815260200191508051906020019080838360005b8381101561019957808201518184015260208101905061017e565b50505050905090810190601f1680156101c65780820380516001836020036101000a031916815260200191505b509250505060405180910390f35b3480156101e057600080fd5b506101e961052e565b6040518082815260200191505060405180910390f35b34801561020b57600080fd5b50610214610534565b6040518082815260200191505060405180910390f35b34801561023657600080fd5b5061023f61053e565b6040518082815260200191505060405180910390f35b34801561026157600080fd5b5061026a610548565b604051808273ffffffffffffffffffffffffffffffffffffffff1673ffffffffffffffffffffffffffffffffffffffff16815260200191505060405180910390f35b3480156102b857600080fd5b506102fb600480360360208110156102cf57600080fd5b81019080803573ffffffffffffffffffffffffffffffffffffffff16906020019092919050505061056d565b005b34801561030957600080fd5b506103126106d2565b604051808273ffffffffffffffffffffffffffffffffffffffff1673ffffffffffffffffffffffffffffffffffffffff16815260200191505060405180910390f35b34801561036057600080fd5b506103a36004803603602081101561037757600080fd5b81019080803573ffffffffffffffffffffffffffffffffffffffff1690602001909291905050506106fb565b6040518082815260200191505060405180910390f35b6103c1610713565b005b3480156103cf57600080fd5b506103d8610865565b6040518082815260200191505060405180910390f35b60018054600181600116156101000203166002900480601f0160208091040260200160405190810160405280929190818152602001828054600181600116156101000203166002900480156104845780601f1061045957610100808354040283529160200191610484565b820191906000526020600020905b81548152906001019060200180831161046757829003601f168201915b505050505081565b606060018054600181600116156101000203166002900480601f0160208091040260200160405190810160405280929190818152602001828054600181600116156101000203166002900480156105245780601f106104f957610100808354040283529160200191610524565b820191906000526020600020905b81548152906001019060200180831161050757829003601f168201915b5050505050905090565b60045481565b6000600354905090565b6000600454905090565b6000809054906101000a900473ffffffffffffffffffffffffffffffffffffffff1681565b6000809054906101000a900473ffffffffffffffffffffffffffffffffffffffff1673ffffffffffffffffffffffffffffffffffffffff163373ffffffffffffffffffffffffffffffffffffffff16141515610631576040517f08c379a000000000000000000000000000000000000000000000000000000000815260040180806020018281038252601f8152602001807f4f6e6c7920746865206f7267616e697a65722063616e2077697468647261770081525060200191505060405180910390fd5b600060035490506000600381905550806004600082825401925050819055508173ffffffffffffffffffffffffffffffffffffffff166108fc829081150290604051600060405180830381858888f19350505050158015610696573d6000803e3d6000fd5b507fabea6ee1abd3feb8eba12257bfc95b35840b18bedf05a71128df905f3bce0e71816040518082815260200191505060405180910390a15050565b60008060009054906101000a900473ffffffffffffffffffffffffffffffffffffffff16905090565b60026020528060005260406000206000915090505481565b60003411151561078b576040517f08c379a000000000000000000000000000000000000000000000000000000000815260040180806020018281038252601c8152602001807f506c6561736520646f6e617465206174206c656173742031207765690000000081525060200191505060405180910390fd5b34600260003373ffffffffffffffffffffffffffffffffffffffff1673ffffffffffffffffffffffffffffffffffffffff1681526020019081526020016000206000828254019250508190555034600360008282540192505081905550346004600082825401925050819055507f2a01595cddf097c90216094025db714da3f4e5bd8877b56ba86a24ecead8e5433334604051808373ffffffffffffffffffffffffffffffffffffffff1673ffffffffffffffffffffffffffffffffffffffff1681526020018281526020019250505060405180910390a1565b6003548156fea165627a7a72305820d38d60568d5d67dbb4ff3dfca8485e1f49c2c9a834558737de770aed460edf1c0029",
  "source": "pragma solidity ^0.5.0;\r\n\r\ncontract Donation {\r\n    address public owner;\r\n    string public name;\r\n    mapping(address => uint256) public donors;\r\n    uint256 public currentAmount;\r\n    uint256 public totalAmount;\r\n\r\n    constructor() public {\r\n        owner =  msg.sender;\r\n        name = \"Charity Donation\";\r\n        currentAmount = address(this).balance;\r\n        totalAmount = address(this).balance;\r\n    }\r\n\r\n    event Donated(address _donor, uint256 _amount);\r\n    event OrganizerWithdrawn(uint256 _amount);\r\n\r\n    function donate() public payable {\r\n        require(msg.value > 0, \"Please donate at least 1 wei\");\r\n        donors[msg.sender] += msg.value;\r\n        currentAmount += msg.value;\r\n        totalAmount += msg.value;\r\n\r\n        emit Donated(msg.sender, msg.value);\r\n    }\r\n\r\n    function organizerWithdraw(address payable _to) public {\r\n        require(msg.sender == owner, \"Only the organizer can withdraw\");\r\n\r\n        uint256 amount = currentAmount;\r\n        currentAmount = 0;\r\n        totalAmount += amount;\r\n        _to.transfer(amount);\r\n\r\n        emit OrganizerWithdrawn(amount);\r\n    }\r\n\r\n    function getCurrentAmount() public view returns (uint256) {\r\n        return currentAmount;\r\n    }\r\n\r\n    function getTotalAmount() public view returns (uint256) {\r\n        return totalAmount;\r\n    }\r\n\r\n    function getName() public view returns (string memory) {\r\n        return name;    \r\n    }\r\n\r\n    function getOrganizer() public view returns (address) {\r\n        return owner;\r\n    }\r\n}",
  "sourcePath": "C:/Users/Chiew/Documents/DApp/crowdfunding/src/contracts/Donation.sol",
  "compiler": {
    "name": "solc",
    "version": "0.5.0+commit.1d4f565a.Emscripten.clang"
  },
  "schemaVersion": "3.0.2",
  "updatedAt": "2024-05-14T04:05:48.407Z",
  "devdoc": {
    "methods": {}
  },
  "userdoc": {
    "methods": {}
  }
}